{
  "contractName": "Voting",
  "abi": [
    {
      "inputs": [],
      "payable": false,
      "stateMutability": "nonpayable",
      "type": "constructor"
    },
    {
      "constant": true,
      "inputs": [
        {
          "internalType": "uint256",
          "name": "",
          "type": "uint256"
        }
      ],
      "name": "candidateList",
      "outputs": [
        {
          "internalType": "string",
          "name": "",
          "type": "string"
        }
      ],
      "payable": false,
      "stateMutability": "view",
      "type": "function"
    },
    {
      "constant": true,
      "inputs": [
        {
          "internalType": "address",
          "name": "",
          "type": "address"
        }
      ],
      "name": "register",
      "outputs": [
        {
          "internalType": "bool",
          "name": "",
          "type": "bool"
        }
      ],
      "payable": false,
      "stateMutability": "view",
      "type": "function"
    },
    {
      "constant": true,
      "inputs": [
        {
          "internalType": "uint256",
          "name": "",
          "type": "uint256"
        }
      ],
      "name": "registerIdList",
      "outputs": [
        {
          "internalType": "bytes32",
          "name": "",
          "type": "bytes32"
        }
      ],
      "payable": false,
      "stateMutability": "view",
      "type": "function"
    },
    {
      "constant": true,
      "inputs": [
        {
          "internalType": "address",
          "name": "",
          "type": "address"
        }
      ],
      "name": "voteData",
      "outputs": [
        {
          "internalType": "string",
          "name": "",
          "type": "string"
        }
      ],
      "payable": false,
      "stateMutability": "view",
      "type": "function"
    },
    {
      "constant": true,
      "inputs": [
        {
          "internalType": "address",
          "name": "",
          "type": "address"
        }
      ],
      "name": "voters",
      "outputs": [
        {
          "internalType": "bool",
          "name": "",
          "type": "bool"
        }
      ],
      "payable": false,
      "stateMutability": "view",
      "type": "function"
    },
    {
      "constant": true,
      "inputs": [
        {
          "internalType": "bytes32",
          "name": "",
          "type": "bytes32"
        }
      ],
      "name": "votesReceived",
      "outputs": [
        {
          "internalType": "uint8",
          "name": "",
          "type": "uint8"
        }
      ],
      "payable": false,
      "stateMutability": "view",
      "type": "function"
    },
    {
      "constant": false,
      "inputs": [
        {
          "internalType": "string",
          "name": "title",
          "type": "string"
        },
        {
          "internalType": "string",
          "name": "select1",
          "type": "string"
        },
        {
          "internalType": "string",
          "name": "select2",
          "type": "string"
        },
        {
          "internalType": "string",
          "name": "select3",
          "type": "string"
        },
        {
          "internalType": "string",
          "name": "select4",
          "type": "string"
        },
        {
          "internalType": "string",
          "name": "select5",
          "type": "string"
        },
        {
          "internalType": "string",
          "name": "select6",
          "type": "string"
        },
        {
          "internalType": "string",
          "name": "select7",
          "type": "string"
        },
        {
          "internalType": "string",
          "name": "select8",
          "type": "string"
        },
        {
          "internalType": "string",
          "name": "select9",
          "type": "string"
        },
        {
          "internalType": "string",
          "name": "select10",
          "type": "string"
        }
      ],
      "name": "projectSetup",
      "outputs": [],
      "payable": false,
      "stateMutability": "nonpayable",
      "type": "function"
    },
    {
      "constant": false,
      "inputs": [
        {
          "internalType": "bytes32",
          "name": "register1",
          "type": "bytes32"
        },
        {
          "internalType": "bytes32",
          "name": "register2",
          "type": "bytes32"
        },
        {
          "internalType": "bytes32",
          "name": "register3",
          "type": "bytes32"
        },
        {
          "internalType": "bytes32",
          "name": "register4",
          "type": "bytes32"
        },
        {
          "internalType": "bytes32",
          "name": "register5",
          "type": "bytes32"
        },
        {
          "internalType": "bytes32",
          "name": "register6",
          "type": "bytes32"
        },
        {
          "internalType": "bytes32",
          "name": "register7",
          "type": "bytes32"
        },
        {
          "internalType": "bytes32",
          "name": "register8",
          "type": "bytes32"
        }
      ],
      "name": "registerIdSetup",
      "outputs": [],
      "payable": false,
      "stateMutability": "nonpayable",
      "type": "function"
    },
    {
      "constant": false,
      "inputs": [
        {
          "internalType": "string",
          "name": "register_start_time",
          "type": "string"
        },
        {
          "internalType": "string",
          "name": "register_end_time",
          "type": "string"
        },
        {
          "internalType": "string",
          "name": "vote_start_time",
          "type": "string"
        },
        {
          "internalType": "string",
          "name": "vote_end_time",
          "type": "string"
        }
      ],
      "name": "TimeSetSetup",
      "outputs": [],
      "payable": false,
      "stateMutability": "nonpayable",
      "type": "function"
    },
    {
      "constant": true,
      "inputs": [],
      "name": "getProjectName",
      "outputs": [
        {
          "internalType": "string",
          "name": "",
          "type": "string"
        }
      ],
      "payable": false,
      "stateMutability": "view",
      "type": "function"
    },
    {
      "constant": true,
      "inputs": [],
      "name": "getRegisterStartTime",
      "outputs": [
        {
          "internalType": "string",
          "name": "",
          "type": "string"
        }
      ],
      "payable": false,
      "stateMutability": "view",
      "type": "function"
    },
    {
      "constant": true,
      "inputs": [],
      "name": "getRegisterEndTime",
      "outputs": [
        {
          "internalType": "string",
          "name": "",
          "type": "string"
        }
      ],
      "payable": false,
      "stateMutability": "view",
      "type": "function"
    },
    {
      "constant": true,
      "inputs": [],
      "name": "getVoteStartTime",
      "outputs": [
        {
          "internalType": "string",
          "name": "",
          "type": "string"
        }
      ],
      "payable": false,
      "stateMutability": "view",
      "type": "function"
    },
    {
      "constant": true,
      "inputs": [],
      "name": "getVoteEndTime",
      "outputs": [
        {
          "internalType": "string",
          "name": "",
          "type": "string"
        }
      ],
      "payable": false,
      "stateMutability": "view",
      "type": "function"
    },
    {
      "constant": true,
      "inputs": [
        {
          "internalType": "uint256",
          "name": "index",
          "type": "uint256"
        }
      ],
      "name": "getCandidateList",
      "outputs": [
        {
          "internalType": "string",
          "name": "",
          "type": "string"
        }
      ],
      "payable": false,
      "stateMutability": "view",
      "type": "function"
    },
    {
      "constant": true,
      "inputs": [],
      "name": "getRegisterCount",
      "outputs": [
        {
          "internalType": "uint8",
          "name": "",
          "type": "uint8"
        }
      ],
      "payable": false,
      "stateMutability": "view",
      "type": "function"
    },
    {
      "constant": true,
      "inputs": [],
      "name": "getVoteCount",
      "outputs": [
        {
          "internalType": "uint8",
          "name": "",
          "type": "uint8"
        }
      ],
      "payable": false,
      "stateMutability": "view",
      "type": "function"
    },
    {
      "constant": true,
      "inputs": [],
      "name": "getVoteData",
      "outputs": [
        {
          "internalType": "string",
          "name": "",
          "type": "string"
        }
      ],
      "payable": false,
      "stateMutability": "view",
      "type": "function"
    },
    {
      "constant": true,
      "inputs": [
        {
          "internalType": "bytes32",
          "name": "candidate",
          "type": "bytes32"
        }
      ],
      "name": "totalVotesFor",
      "outputs": [
        {
          "internalType": "uint8",
          "name": "",
          "type": "uint8"
        }
      ],
      "payable": false,
      "stateMutability": "view",
      "type": "function"
    },
    {
      "constant": false,
      "inputs": [
        {
          "internalType": "bytes32",
          "name": "candidate",
          "type": "bytes32"
        }
      ],
      "name": "voteForCandidate",
      "outputs": [],
      "payable": false,
      "stateMutability": "nonpayable",
      "type": "function"
    },
    {
      "constant": false,
      "inputs": [
        {
          "internalType": "string",
          "name": "candidate",
          "type": "string"
        }
      ],
      "name": "voteDataStore",
      "outputs": [],
      "payable": false,
      "stateMutability": "nonpayable",
      "type": "function"
    },
    {
      "constant": false,
      "inputs": [
        {
          "internalType": "bytes32",
          "name": "registerId",
          "type": "bytes32"
        }
      ],
      "name": "someoneRegister",
      "outputs": [],
      "payable": false,
      "stateMutability": "nonpayable",
      "type": "function"
    },
    {
      "constant": true,
      "inputs": [],
      "name": "VaildID",
      "outputs": [
        {
          "internalType": "bool",
          "name": "",
          "type": "bool"
        }
      ],
      "payable": false,
      "stateMutability": "view",
      "type": "function"
    },
    {
      "constant": true,
      "inputs": [],
      "name": "isVoted",
      "outputs": [
        {
          "internalType": "bool",
          "name": "",
          "type": "bool"
        }
      ],
      "payable": false,
      "stateMutability": "view",
      "type": "function"
    },
    {
      "constant": false,
      "inputs": [
        {
          "internalType": "string",
          "name": "privatekey",
          "type": "string"
        }
      ],
      "name": "doGenerate",
      "outputs": [],
      "payable": false,
      "stateMutability": "nonpayable",
      "type": "function"
    },
    {
      "constant": true,
      "inputs": [],
      "name": "getPrivateKey",
      "outputs": [
        {
          "internalType": "string",
          "name": "",
          "type": "string"
        }
      ],
      "payable": false,
      "stateMutability": "view",
      "type": "function"
    }
  ],
  "bytecode": "0x60806040526040518060400160405280601081526020017f323032342d30332d32332031303a303000000000000000000000000000000000815250600790805190602001906200005192919062000188565b506040518060400160405280601081526020017f323032342d30332d32332031303a303000000000000000000000000000000000815250600890805190602001906200009f92919062000188565b506040518060400160405280601081526020017f323032342d30332d32332031303a30300000000000000000000000000000000081525060099080519060200190620000ed92919062000188565b506040518060400160405280601081526020017f323032342d30332d32332031303a303000000000000000000000000000000000815250600a90805190602001906200013b92919062000188565b506000600c60006101000a81548160ff021916908360ff1602179055506000600c60016101000a81548160ff021916908360ff1602179055503480156200018157600080fd5b5062000237565b828054600181600116156101000203166002900490600052602060002090601f016020900481019282601f10620001cb57805160ff1916838001178555620001fc565b82800160010185558215620001fc579182015b82811115620001fb578251825591602001919060010190620001de565b5b5090506200020b91906200020f565b5090565b6200023491905b808211156200023057600081600090555060010162000216565b5090565b90565b61242a80620002476000396000f3fe608060405234801561001057600080fd5b506004361061018e5760003560e01c8063735b81f7116100de578063ba57082511610097578063e7b3387c11610071578063e7b3387c1461115d578063f687db3914611181578063f918d53514611204578063fa2e5719146114845761018e565b8063ba57082514610a0a578063cc9ab26714610a8d578063cf8e903014610abb5761018e565b8063735b81f7146107305780637b5bc2e4146107ed5780638e0426c81461080f5780639faf621514610884578063a3ec138d14610907578063b13c744b146109635761018e565b80634420e4861161014b5780635f6be805116101255780635f6be8051461053b578063618bde0a146105be57806361f0b25f146106655780637021939f146106e85761018e565b80634420e48614610400578063447954461461045c5780635994a490146105175761018e565b80630270bea014610193578063069a143e14610216578063278b3656146102995780632f265cf7146103545780633d1b21011461039c578063421f264e146103de575b600080fd5b61019b6114b2565b6040518080602001828103825283818151815260200191508051906020019080838360005b838110156101db5780820151818401526020810190506101c0565b50505050905090810190601f1680156102085780820380516001836020036101000a031916815260200191505b509250505060405180910390f35b61021e611591565b6040518080602001828103825283818151815260200191508051906020019080838360005b8381101561025e578082015181840152602081019050610243565b50505050905090810190601f16801561028b5780820380516001836020036101000a031916815260200191505b509250505060405180910390f35b610352600480360360208110156102af57600080fd5b81019080803590602001906401000000008111156102cc57600080fd5b8201836020820111156102de57600080fd5b8035906020019184600183028401116401000000008311171561030057600080fd5b91908080601f016020809104026020016040519081016040528093929190818152602001838380828437600081840152601f19601f820116905080830192505050505050509192919290505050611633565b005b6103806004803603602081101561036a57600080fd5b8101908080359060200190929190505050611766565b604051808260ff1660ff16815260200191505060405180910390f35b6103c8600480360360208110156103b257600080fd5b810190808035906020019092919050505061178f565b6040518082815260200191505060405180910390f35b6103e66117b0565b604051808215151515815260200191505060405180910390f35b6104426004803603602081101561041657600080fd5b81019080803573ffffffffffffffffffffffffffffffffffffffff169060200190929190505050611815565b604051808215151515815260200191505060405180910390f35b6105156004803603602081101561047257600080fd5b810190808035906020019064010000000081111561048f57600080fd5b8201836020820111156104a157600080fd5b803590602001918460018302840111640100000000831117156104c357600080fd5b91908080601f016020809104026020016040519081016040528093929190818152602001838380828437600081840152601f19601f820116905080830192505050505050509192919290505050611835565b005b61051f61184f565b604051808260ff1660ff16815260200191505060405180910390f35b610543611866565b6040518080602001828103825283818151815260200191508051906020019080838360005b83811015610583578082015181840152602081019050610568565b50505050905090810190601f1680156105b05780820380516001836020036101000a031916815260200191505b509250505060405180910390f35b6105ea600480360360208110156105d457600080fd5b8101908080359060200190929190505050611908565b6040518080602001828103825283818151815260200191508051906020019080838360005b8381101561062a57808201518184015260208101905061060f565b50505050905090810190601f1680156106575780820380516001836020036101000a031916815260200191505b509250505060405180910390f35b61066d6119c1565b6040518080602001828103825283818151815260200191508051906020019080838360005b838110156106ad578082015181840152602081019050610692565b50505050905090810190601f1680156106da5780820380516001836020036101000a031916815260200191505b509250505060405180910390f35b610714600480360360208110156106fe57600080fd5b8101908080359060200190929190505050611a63565b604051808260ff1660ff16815260200191505060405180910390f35b6107726004803603602081101561074657600080fd5b81019080803573ffffffffffffffffffffffffffffffffffffffff169060200190929190505050611a83565b6040518080602001828103825283818151815260200191508051906020019080838360005b838110156107b2578082015181840152602081019050610797565b50505050905090810190601f1680156107df5780820380516001836020036101000a031916815260200191505b509250505060405180910390f35b6107f5611b33565b604051808215151515815260200191505060405180910390f35b610882600480360361010081101561082657600080fd5b810190808035906020019092919080359060200190929190803590602001909291908035906020019092919080359060200190929190803590602001909291908035906020019092919080359060200190929190505050611b98565b005b61088c611d02565b6040518080602001828103825283818151815260200191508051906020019080838360005b838110156108cc5780820151818401526020810190506108b1565b50505050905090810190601f1680156108f95780820380516001836020036101000a031916815260200191505b509250505060405180910390f35b6109496004803603602081101561091d57600080fd5b81019080803573ffffffffffffffffffffffffffffffffffffffff169060200190929190505050611da4565b604051808215151515815260200191505060405180910390f35b61098f6004803603602081101561097957600080fd5b8101908080359060200190929190505050611dc4565b6040518080602001828103825283818151815260200191508051906020019080838360005b838110156109cf5780820151818401526020810190506109b4565b50505050905090810190601f1680156109fc5780820380516001836020036101000a031916815260200191505b509250505060405180910390f35b610a12611e7d565b6040518080602001828103825283818151815260200191508051906020019080838360005b83811015610a52578082015181840152602081019050610a37565b50505050905090810190601f168015610a7f5780820380516001836020036101000a031916815260200191505b509250505060405180910390f35b610ab960048036036020811015610aa357600080fd5b8101908080359060200190929190505050611f1f565b005b61115b6004803603610160811015610ad257600080fd5b8101908080359060200190640100000000811115610aef57600080fd5b820183602082011115610b0157600080fd5b80359060200191846001830284011164010000000083111715610b2357600080fd5b91908080601f016020809104026020016040519081016040528093929190818152602001838380828437600081840152601f19601f82011690508083019250505050505050919291929080359060200190640100000000811115610b8657600080fd5b820183602082011115610b9857600080fd5b80359060200191846001830284011164010000000083111715610bba57600080fd5b91908080601f016020809104026020016040519081016040528093929190818152602001838380828437600081840152601f19601f82011690508083019250505050505050919291929080359060200190640100000000811115610c1d57600080fd5b820183602082011115610c2f57600080fd5b80359060200191846001830284011164010000000083111715610c5157600080fd5b91908080601f016020809104026020016040519081016040528093929190818152602001838380828437600081840152601f19601f82011690508083019250505050505050919291929080359060200190640100000000811115610cb457600080fd5b820183602082011115610cc657600080fd5b80359060200191846001830284011164010000000083111715610ce857600080fd5b91908080601f016020809104026020016040519081016040528093929190818152602001838380828437600081840152601f19601f82011690508083019250505050505050919291929080359060200190640100000000811115610d4b57600080fd5b820183602082011115610d5d57600080fd5b80359060200191846001830284011164010000000083111715610d7f57600080fd5b91908080601f016020809104026020016040519081016040528093929190818152602001838380828437600081840152601f19601f82011690508083019250505050505050919291929080359060200190640100000000811115610de257600080fd5b820183602082011115610df457600080fd5b80359060200191846001830284011164010000000083111715610e1657600080fd5b91908080601f016020809104026020016040519081016040528093929190818152602001838380828437600081840152601f19601f82011690508083019250505050505050919291929080359060200190640100000000811115610e7957600080fd5b820183602082011115610e8b57600080fd5b80359060200191846001830284011164010000000083111715610ead57600080fd5b91908080601f016020809104026020016040519081016040528093929190818152602001838380828437600081840152601f19601f82011690508083019250505050505050919291929080359060200190640100000000811115610f1057600080fd5b820183602082011115610f2257600080fd5b80359060200191846001830284011164010000000083111715610f4457600080fd5b91908080601f016020809104026020016040519081016040528093929190818152602001838380828437600081840152601f19601f82011690508083019250505050505050919291929080359060200190640100000000811115610fa757600080fd5b820183602082011115610fb957600080fd5b80359060200191846001830284011164010000000083111715610fdb57600080fd5b91908080601f016020809104026020016040519081016040528093929190818152602001838380828437600081840152601f19601f8201169050808301925050505050505091929192908035906020019064010000000081111561103e57600080fd5b82018360208201111561105057600080fd5b8035906020019184600183028401116401000000008311171561107257600080fd5b91908080601f016020809104026020016040519081016040528093929190818152602001838380828437600081840152601f19601f820116905080830192505050505050509192919290803590602001906401000000008111156110d557600080fd5b8201836020820111156110e757600080fd5b8035906020019184600183028401116401000000008311171561110957600080fd5b91908080601f016020809104026020016040519081016040528093929190818152602001838380828437600081840152601f19601f820116905080830192505050505050509192919290505050611f60565b005b611165611fdb565b604051808260ff1660ff16815260200191505060405180910390f35b611189611ff2565b6040518080602001828103825283818151815260200191508051906020019080838360005b838110156111c95780820151818401526020810190506111ae565b50505050905090810190601f1680156111f65780820380516001836020036101000a031916815260200191505b509250505060405180910390f35b6114826004803603608081101561121a57600080fd5b810190808035906020019064010000000081111561123757600080fd5b82018360208201111561124957600080fd5b8035906020019184600183028401116401000000008311171561126b57600080fd5b91908080601f016020809104026020016040519081016040528093929190818152602001838380828437600081840152601f19601f820116905080830192505050505050509192919290803590602001906401000000008111156112ce57600080fd5b8201836020820111156112e057600080fd5b8035906020019184600183028401116401000000008311171561130257600080fd5b91908080601f016020809104026020016040519081016040528093929190818152602001838380828437600081840152601f19601f8201169050808301925050505050505091929192908035906020019064010000000081111561136557600080fd5b82018360208201111561137757600080fd5b8035906020019184600183028401116401000000008311171561139957600080fd5b91908080601f016020809104026020016040519081016040528093929190818152602001838380828437600081840152601f19601f820116905080830192505050505050509192919290803590602001906401000000008111156113fc57600080fd5b82018360208201111561140e57600080fd5b8035906020019184600183028401116401000000008311171561143057600080fd5b91908080601f016020809104026020016040519081016040528093929190818152602001838380828437600081840152601f19601f820116905080830192505050505050509192919290505050612094565b005b6114b06004803603602081101561149a57600080fd5b81019080803590602001909291905050506120f6565b005b6060600360003373ffffffffffffffffffffffffffffffffffffffff1673ffffffffffffffffffffffffffffffffffffffff1681526020019081526020016000208054600181600116156101000203166002900480601f0160208091040260200160405190810160405280929190818152602001828054600181600116156101000203166002900480156115875780601f1061155c57610100808354040283529160200191611587565b820191906000526020600020905b81548152906001019060200180831161156a57829003601f168201915b5050505050905090565b606060088054600181600116156101000203166002900480601f0160208091040260200160405190810160405280929190818152602001828054600181600116156101000203166002900480156116295780601f106115fe57610100808354040283529160200191611629565b820191906000526020600020905b81548152906001019060200180831161160c57829003601f168201915b5050505050905090565b600160003373ffffffffffffffffffffffffffffffffffffffff1673ffffffffffffffffffffffffffffffffffffffff16815260200190815260200160002060009054906101000a900460ff161561168a57600080fd5b60018060003373ffffffffffffffffffffffffffffffffffffffff1673ffffffffffffffffffffffffffffffffffffffff16815260200190815260200160002060006101000a81548160ff02191690831515021790555080600360003373ffffffffffffffffffffffffffffffffffffffff1673ffffffffffffffffffffffffffffffffffffffff16815260200190815260200160002090805190602001906117349291906121fc565b506001600c60018282829054906101000a900460ff160192506101000a81548160ff021916908360ff16021790555050565b600080600083815260200190815260200160002060009054906101000a900460ff169050919050565b6005818154811061179c57fe5b906000526020600020016000915090505481565b6000600260003373ffffffffffffffffffffffffffffffffffffffff1673ffffffffffffffffffffffffffffffffffffffff16815260200190815260200160002060009054906101000a900460ff161561180d5760019050611812565b600090505b90565b60026020528060005260406000206000915054906101000a900460ff1681565b80600b908051906020019061184b9291906121fc565b5050565b6000600c60009054906101000a900460ff16905090565b606060078054600181600116156101000203166002900480601f0160208091040260200160405190810160405280929190818152602001828054600181600116156101000203166002900480156118fe5780601f106118d3576101008083540402835291602001916118fe565b820191906000526020600020905b8154815290600101906020018083116118e157829003601f168201915b5050505050905090565b60606004828154811061191757fe5b906000526020600020018054600181600116156101000203166002900480601f0160208091040260200160405190810160405280929190818152602001828054600181600116156101000203166002900480156119b55780601f1061198a576101008083540402835291602001916119b5565b820191906000526020600020905b81548152906001019060200180831161199857829003601f168201915b50505050509050919050565b6060600b8054600181600116156101000203166002900480601f016020809104026020016040519081016040528092919081815260200182805460018160011615610100020316600290048015611a595780601f10611a2e57610100808354040283529160200191611a59565b820191906000526020600020905b815481529060010190602001808311611a3c57829003601f168201915b5050505050905090565b60006020528060005260406000206000915054906101000a900460ff1681565b60036020528060005260406000206000915090508054600181600116156101000203166002900480601f016020809104026020016040519081016040528092919081815260200182805460018160011615610100020316600290048015611b2b5780601f10611b0057610100808354040283529160200191611b2b565b820191906000526020600020905b815481529060010190602001808311611b0e57829003601f168201915b505050505081565b6000600160003373ffffffffffffffffffffffffffffffffffffffff1673ffffffffffffffffffffffffffffffffffffffff16815260200190815260200160002060009054906101000a900460ff1615611b905760019050611b95565b600090505b90565b600588908060018154018082558091505090600182039060005260206000200160009091929091909150555060058790806001815401808255809150509060018203906000526020600020016000909192909190915055506005869080600181540180825580915050906001820390600052602060002001600090919290919091505550600585908060018154018082558091505090600182039060005260206000200160009091929091909150555060058490806001815401808255809150509060018203906000526020600020016000909192909190915055506005839080600181540180825580915050906001820390600052602060002001600090919290919091505550600582908060018154018082558091505090600182039060005260206000200160009091929091909150555060058190806001815401808255809150509060018203906000526020600020016000909192909190915055505050505050505050565b606060068054600181600116156101000203166002900480601f016020809104026020016040519081016040528092919081815260200182805460018160011615610100020316600290048015611d9a5780601f10611d6f57610100808354040283529160200191611d9a565b820191906000526020600020905b815481529060010190602001808311611d7d57829003601f168201915b5050505050905090565b60016020528060005260406000206000915054906101000a900460ff1681565b60048181548110611dd157fe5b906000526020600020016000915090508054600181600116156101000203166002900480601f016020809104026020016040519081016040528092919081815260200182805460018160011615610100020316600290048015611e755780601f10611e4a57610100808354040283529160200191611e75565b820191906000526020600020905b815481529060010190602001808311611e5857829003601f168201915b505050505081565b6060600a8054600181600116156101000203166002900480601f016020809104026020016040519081016040528092919081815260200182805460018160011615610100020316600290048015611f155780601f10611eea57610100808354040283529160200191611f15565b820191906000526020600020905b815481529060010190602001808311611ef857829003601f168201915b5050505050905090565b600160008083815260200190815260200160002060008282829054906101000a900460ff160192506101000a81548160ff021916908360ff16021790555050565b8a60069080519060200190611f769291906121fc565b506040518061014001604052808b81526020018a815260200189815260200188815260200187815260200186815260200185815260200184815260200183815260200182815250600490600a611fcd92919061227c565b505050505050505050505050565b6000600c60019054906101000a900460ff16905090565b606060098054600181600116156101000203166002900480601f01602080910402602001604051908101604052809291908181526020018280546001816001161561010002031660029004801561208a5780601f1061205f5761010080835404028352916020019161208a565b820191906000526020600020905b81548152906001019060200180831161206d57829003601f168201915b5050505050905090565b83600790805190602001906120aa9291906121fc565b5082600890805190602001906120c19291906121fc565b5081600990805190602001906120d89291906121fc565b5080600a90805190602001906120ef9291906121fc565b5050505050565b60008090505b6005805490508110156121f857816005828154811061211757fe5b906000526020600020015414156121eb576001600260003373ffffffffffffffffffffffffffffffffffffffff1673ffffffffffffffffffffffffffffffffffffffff16815260200190815260200160002060006101000a81548160ff0219169083151502179055507f3078300000000000000000000000000000000000000000000000000000000000600582815481106121ae57fe5b90600052602060002001819055506001600c60008282829054906101000a900460ff160192506101000a81548160ff021916908360ff1602179055505b80806001019150506120fc565b5050565b828054600181600116156101000203166002900490600052602060002090601f016020900481019282601f1061223d57805160ff191683800117855561226b565b8280016001018555821561226b579182015b8281111561226a57825182559160200191906001019061224f565b5b50905061227891906122dc565b5090565b8280548282559060005260206000209081019282156122cb579160200282015b828111156122ca5782518290805190602001906122ba929190612301565b509160200191906001019061229c565b5b5090506122d89190612381565b5090565b6122fe91905b808211156122fa5760008160009055506001016122e2565b5090565b90565b828054600181600116156101000203166002900490600052602060002090601f016020900481019282601f1061234257805160ff1916838001178555612370565b82800160010185558215612370579182015b8281111561236f578251825591602001919060010190612354565b5b50905061237d91906122dc565b5090565b6123aa91905b808211156123a6576000818161239d91906123ad565b50600101612387565b5090565b90565b50805460018160011615610100020316600290046000825580601f106123d357506123f2565b601f0160209004906000526020600020908101906123f191906122dc565b5b5056fea265627a7a72315820fc17a9aa7bd83b7b8b73cc70656a36e6610d3e5b782c07110bc2336ea96f392564736f6c63430005100032",
  "source": "pragma solidity ^0.5.16;\r\ncontract Voting {\r\n\r\n\r\n  mapping (bytes32 => uint8) public votesReceived;//\r\n\r\n  mapping (address=>bool) public voters;//\r\n  mapping (address=>bool) public register;//\r\n  mapping (address=>string) public voteData;//\r\n\r\n  string[] public candidateList;\r\n  bytes32[] public registerIdList;\r\n\r\n  string ProjectName;\r\n  string RegisterStartTime = \"2024-03-23 10:00\";\r\n  string RegisterEndTime = \"2024-03-23 10:00\";\r\n  string VoteStartTime =\"2024-03-23 10:00\";\r\n  string VoteEndTime = \"2024-03-23 10:00\";\r\n  string PrivateKey;\r\n\r\n  uint8 registerCount = 0;\r\n  uint8 voteCount = 0;\r\n\r\n  constructor() public {\r\n    //candidateList.push(\"zhang\");\r\n    //candidateList.push(\"bin\");\r\n    //candidateList.push(\"cheng\");\r\n    //registerIdList.push(123456);\r\n    //registerIdList.push(111111);\r\n    //registerIdList.push(222222);\r\n  }\r\n\r\nfunction projectSetup(string memory title, string memory select1, string memory select2, string memory select3,string memory select4, string memory select5, string memory select6,string memory select7, string memory select8, string memory select9,string memory select10) public{\r\n      ProjectName = title;\r\n      candidateList = [select1, select2, select3,select4, select5, select6,select7, select8, select9, select10];\r\n  }\r\n\r\n  //\r\n  function registerIdSetup(bytes32 register1, bytes32 register2, bytes32 register3, bytes32 register4, bytes32 register5, bytes32 register6, bytes32 register7, bytes32 register8) public{\r\n      registerIdList.push(register1);\r\n      registerIdList.push(register2);\r\n      registerIdList.push(register3);\r\n      registerIdList.push(register4);\r\n      registerIdList.push(register5);\r\n      registerIdList.push(register6);\r\n      registerIdList.push(register7);\r\n      registerIdList.push(register8);\r\n  }\r\n\r\n  function TimeSetSetup(string memory register_start_time,string memory register_end_time, string memory vote_start_time, string memory vote_end_time) public{\r\n    RegisterStartTime = register_start_time;\r\n    RegisterEndTime = register_end_time;\r\n    VoteStartTime = vote_start_time;\r\n    VoteEndTime = vote_end_time;\r\n  }\r\n\r\n  function getProjectName() public view returns (string memory){\r\n    return ProjectName;\r\n  }\r\n\r\n  function getRegisterStartTime() public view returns (string memory){\r\n    return RegisterStartTime;\r\n  }\r\n\r\n  function getRegisterEndTime() public view returns (string memory){\r\n    return RegisterEndTime;\r\n  }\r\n\r\n  function getVoteStartTime() public view returns (string memory){\r\n    return VoteStartTime;\r\n  }\r\n\r\n  function getVoteEndTime() public view returns (string memory){\r\n    return VoteEndTime;\r\n  }\r\n\r\n  function getCandidateList(uint index) public view returns (string memory){\r\n    return candidateList[index];\r\n  }\r\n\r\n  function getRegisterCount() public view returns (uint8){\r\n      return registerCount;\r\n  }\r\n\r\n  function getVoteCount() public view returns (uint8){\r\n      return voteCount;\r\n  }\r\n\r\n  function getVoteData() public view returns (string memory){\r\n      return voteData[msg.sender];\r\n  }\r\n\r\n  //\r\n  function totalVotesFor(bytes32 candidate) view public returns (uint8) {\r\n    //require(validCandidate(candidate));//the candidate is true\r\n    return votesReceived[candidate];\r\n  }\r\n\r\n  //\r\n  function voteForCandidate(bytes32 candidate) public {\r\n    votesReceived[candidate] += 1;\r\n  }\r\n\r\n  function voteDataStore(string memory candidate) public {\r\n    //require(!register[msg.sender]);\r\n    require(!voters[msg.sender]);\r\n    //require(validCandidate(candidate));//the candidate is true\r\n\r\n    //\r\n    voters[msg.sender] = true;\r\n    voteData[msg.sender] = candidate;\r\n    voteCount += 1;\r\n  }\r\n\r\n  //\r\n  function someoneRegister(bytes32 registerId) public{\r\n      for(uint i = 0; i < registerIdList.length; i++){\r\n          if(registerIdList[i] == registerId){\r\n            register[msg.sender] = true;\r\n            registerIdList[i] = \"0x0\";\r\n            registerCount += 1;\r\n          }\r\n      }\r\n  }\r\n\r\n  //\r\n  function VaildID() public view returns (bool) {\r\n      if(register[msg.sender]) {\r\n          return true;\r\n      }\r\n      return false;\r\n  }\r\n\r\n  //\r\n  function isVoted() public view returns (bool) {\r\n      if(voters[msg.sender]) {\r\n          return true;\r\n      }\r\n      return false;\r\n  }\r\n\r\n  //\r\n  function doGenerate(string memory privatekey) public{\r\n      PrivateKey = privatekey;\r\n  }\r\n\r\n  //\r\n  function getPrivateKey() public view returns (string memory){\r\n      return PrivateKey;\r\n  }\r\n\r\n}\r\n",
  "sourcePath": "D:\\\\2023\\\\Voting\\contracts\\Voting.sol",
  "compiler": {
    "name": "solc",
    "version": "0.5.16+commit.9c3226ce.Emscripten.clang"
  },
  "schemaVersion": "3.4.14",
  "updatedAt": "2023-08-19T07:10:05.843Z",
  "networkType": "ethereum",
  "devdoc": {
    "methods": {}
  },
  "userdoc": {
    "methods": {}
  }
}